:02000000AA282C
:10000600831203132230FC00F801F901FA01FB0107
:10001600FC03031939280310FB0CFA0CF90CF80C35
:10002600F30CF20CF10CF00C031C0B28FC03031967
:100036002B287408F80775080318750FF907760852
:100046000318760FFA0777080318770FFB070F28B0
:100056007408F80775080318750FF907760803186A
:0E006600760FFA0777080318770FFB070800DC
:10007400D03083120313A8000730A900AA01AB01F2
:10008400D030F0000730F1000030F2000030F3000F
:100094002608F4002708F500F601F701032070088C
:1000A400A8007108A9007208AA007308AB00003008
:1000B4007302031D672800307202031D6728023093
:1000C4007102031D6728B230700203186A28A92838
:1000D400B230F0000230F100F201F3017008A8021E
:1000E4007108031C710FA9027208031C720FAA0283
:1000F4007308031C730FAB020530F000700803197A
:100104008A28AB0CAA0CA90CA80CAB13FF3E8128BF
:100114002808F0002908F1002A08F2002B08F3004F
:100124000130A802031CA902031CAA02031CAB028F
:1001340070087104720473040319A92800000000F4
:100144000000000000000000000000008A280800F1
:1001540083120313A201A301A401A501831686013E
:1001640083128601E830A2000330A3008030230606
:10017400F0008030173A7002031DC228703022024A
:100184000318EE288830A4001330A500803025061B
:10019400F0008030133A7002031DD2288830240204
:1001A400031CE72806162208A6002308A7003A2005
:1001B40006122408A6002508A7003A20E830A40265
:1001C400031CA5030330A502C828E830A2070330A6
:0C01D4000318013EA307B828B428EF2848
:02400E004A2F37
:00000001FF
