:020000001628C0
:0E0006008312031328088A00270882000800CE
:1000140003208A110A128000840AA70A0319A80A75
:08002400F003031D0A28080087
:10002C0083120313A001A1017730A2007930A30041
:10003C000630A4003F30A5003E30A6008316860192
:10004C00FF3083128600FF3083168800FF30831246
:10005C008800081C51280B30FB002630FC005D305A
:10006C00FD00FD0B3728FC0B3728FB0B3728000055
:10007C000000081C512800302102031D47280530C0
:10008C00200203184D28A00A0319A10A5128013097
:10009C00A002031CA1032008223E84000008860055
:1000AC000B30FB002630FC005D30FD00FD0B5C28A6
:1000BC00FC0B5C28FB0B5C28000000002F2865283B
:02400E004A2F37
:00000001FF
